{
  "contractName": "Ownable",
  "abi": [
    {
      "inputs": [
        {
          "internalType": "address",
          "name": "_creator",
          "type": "address"
        },
        {
          "internalType": "address",
          "name": "_firstOwner",
          "type": "address"
        }
      ],
      "stateMutability": "nonpayable",
      "type": "constructor"
    },
    {
      "anonymous": false,
      "inputs": [
        {
          "indexed": true,
          "internalType": "address",
          "name": "previousOwner",
          "type": "address"
        },
        {
          "indexed": true,
          "internalType": "address",
          "name": "newOwner",
          "type": "address"
        }
      ],
      "name": "OwnershipTransferred",
      "type": "event"
    },
    {
      "inputs": [],
      "name": "getOwner",
      "outputs": [
        {
          "internalType": "address",
          "name": "",
          "type": "address"
        }
      ],
      "stateMutability": "view",
      "type": "function"
    },
    {
      "inputs": [],
      "name": "getCreator",
      "outputs": [
        {
          "internalType": "address",
          "name": "",
          "type": "address"
        }
      ],
      "stateMutability": "view",
      "type": "function"
    }
  ],
  "bytecode": "0x608060405234801561001057600080fd5b5060405161031a38038061031a8339818101604052810190610032919061012a565b806000806101000a81548173ffffffffffffffffffffffffffffffffffffffff021916908373ffffffffffffffffffffffffffffffffffffffff16021790555081600160006101000a81548173ffffffffffffffffffffffffffffffffffffffff021916908373ffffffffffffffffffffffffffffffffffffffff1602179055508073ffffffffffffffffffffffffffffffffffffffff16600073ffffffffffffffffffffffffffffffffffffffff167f8be0079c531659141344cd1fd0a4f28419497f9722a3daafe3b4186f6b6457e060405160405180910390a350506101af565b60008151905061012481610198565b92915050565b6000806040838503121561013d57600080fd5b600061014b85828601610115565b925050602061015c85828601610115565b9150509250929050565b600061017182610178565b9050919050565b600073ffffffffffffffffffffffffffffffffffffffff82169050919050565b6101a181610166565b81146101ac57600080fd5b50565b61015c806101be6000396000f3fe608060405234801561001057600080fd5b50600436106100365760003560e01c80630ee2cb101461003b578063893d20e814610059575b600080fd5b610043610077565b60405161005091906100d9565b60405180910390f35b6100616100a1565b60405161006e91906100d9565b60405180910390f35b6000600160009054906101000a900473ffffffffffffffffffffffffffffffffffffffff16905090565b60008060009054906101000a900473ffffffffffffffffffffffffffffffffffffffff16905090565b6100d3816100f4565b82525050565b60006020820190506100ee60008301846100ca565b92915050565b60006100ff82610106565b9050919050565b600073ffffffffffffffffffffffffffffffffffffffff8216905091905056fea2646970667358221220f5a76d2bd4cf276bbcdd06a4851116dc80a2c8242bcb317a3a468a340f607d8764736f6c63430008000033",
  "immutableReferences": {},
  "source": "// SPDX-License-Identifier: UNLICENSED\npragma solidity ^0.8.0;\n\n\n\ncontract Ownable {\n  address internal owner;\n  address internal creator;\n\n  event OwnershipTransferred(address indexed previousOwner, address indexed newOwner);\n\n  constructor (address _creator, address _firstOwner) {\n    owner = _firstOwner;\n    creator = _creator;\n    emit OwnershipTransferred(address(0), _firstOwner);\n  }\n\n  modifier onlyOwner() {\n    require(msg.sender == owner, \"Ownable#onlyOwner: SENDER_IS_NOT_OWNER\");\n    _;\n  }\n\n  modifier onlyCreator() {\n    require(msg.sender == creator, \"Ownable#onlyCreator: SENDER_IS_NOT_CREATOR\");\n    _;\n  }\n\n  function _transferOwnership(address _newOwner) internal {\n    require(_newOwner != address(0), \"Ownable#transferOwnership: INVALID_ADDRESS\");\n    owner = _newOwner;\n    emit OwnershipTransferred(owner, _newOwner);\n  }\n\n  function getOwner() public view returns (address) {\n    return owner;\n  }\n\n  function getCreator() public view returns (address) {\n    return creator;\n  }  \n\n}\n",
  "sourcePath": "/Users/shubhaankar/github.com/peer-safe/contracts/contracts/utils/Ownable.sol",
  "compiler": {
    "name": "solc",
    "version": "0.8.0+commit.c7dfd78e.Emscripten.clang"
  },
  "schemaVersion": "3.4.11",
  "updatedAt": "2023-01-21T21:17:21.263Z",
  "devdoc": {
    "kind": "dev",
    "methods": {},
    "version": 1
  },
  "userdoc": {
    "kind": "user",
    "methods": {},
    "version": 1
  }
}