{
  "contractName": "Vault",
  "abi": [
    {
      "inputs": [
        {
          "internalType": "address",
          "name": "_owner",
          "type": "address"
        },
        {
          "internalType": "string",
          "name": "_userName",
          "type": "string"
        }
      ],
      "stateMutability": "nonpayable",
      "type": "constructor"
    },
    {
      "anonymous": false,
      "inputs": [
        {
          "indexed": true,
          "internalType": "address",
          "name": "previousOwner",
          "type": "address"
        },
        {
          "indexed": true,
          "internalType": "address",
          "name": "newOwner",
          "type": "address"
        }
      ],
      "name": "OwnershipTransferred",
      "type": "event"
    },
    {
      "inputs": [],
      "name": "getCreator",
      "outputs": [
        {
          "internalType": "address",
          "name": "",
          "type": "address"
        }
      ],
      "stateMutability": "view",
      "type": "function"
    },
    {
      "inputs": [],
      "name": "getOwner",
      "outputs": [
        {
          "internalType": "address",
          "name": "",
          "type": "address"
        }
      ],
      "stateMutability": "view",
      "type": "function"
    },
    {
      "inputs": [],
      "name": "getAllFiles",
      "outputs": [
        {
          "components": [
            {
              "internalType": "string",
              "name": "_name",
              "type": "string"
            },
            {
              "internalType": "string",
              "name": "_fileType",
              "type": "string"
            },
            {
              "internalType": "string",
              "name": "_ipfsHash",
              "type": "string"
            },
            {
              "internalType": "string",
              "name": "_key",
              "type": "string"
            }
          ],
          "internalType": "struct File[]",
          "name": "",
          "type": "tuple[]"
        }
      ],
      "stateMutability": "view",
      "type": "function"
    },
    {
      "inputs": [
        {
          "internalType": "string",
          "name": "name",
          "type": "string"
        },
        {
          "internalType": "string",
          "name": "fileType",
          "type": "string"
        },
        {
          "internalType": "string",
          "name": "ipfsHash",
          "type": "string"
        },
        {
          "internalType": "string",
          "name": "key",
          "type": "string"
        }
      ],
      "name": "createFile",
      "outputs": [],
      "stateMutability": "nonpayable",
      "type": "function"
    }
  ],
  "bytecode": "0x60806040523480156200001157600080fd5b5060405162000f6338038062000f63833981810160405281019062000037919062000271565b3382806000806101000a81548173ffffffffffffffffffffffffffffffffffffffff021916908373ffffffffffffffffffffffffffffffffffffffff16021790555081600160006101000a81548173ffffffffffffffffffffffffffffffffffffffff021916908373ffffffffffffffffffffffffffffffffffffffff1602179055508073ffffffffffffffffffffffffffffffffffffffff16600073ffffffffffffffffffffffffffffffffffffffff167f8be0079c531659141344cd1fd0a4f28419497f9722a3daafe3b4186f6b6457e060405160405180910390a3505080600290805190602001906200012f92919062000138565b5050506200044a565b82805462000146906200039c565b90600052602060002090601f0160209004810192826200016a5760008555620001b6565b82601f106200018557805160ff1916838001178555620001b6565b82800160010185558215620001b6579182015b82811115620001b557825182559160200191906001019062000198565b5b509050620001c59190620001c9565b5090565b5b80821115620001e4576000816000905550600101620001ca565b5090565b6000620001ff620001f984620002ff565b620002cb565b9050828152602081018484840111156200021857600080fd5b6200022584828562000366565b509392505050565b6000815190506200023e8162000430565b92915050565b600082601f8301126200025657600080fd5b815162000268848260208601620001e8565b91505092915050565b600080604083850312156200028557600080fd5b600062000295858286016200022d565b925050602083015167ffffffffffffffff811115620002b357600080fd5b620002c18582860162000244565b9150509250929050565b6000604051905081810181811067ffffffffffffffff82111715620002f557620002f462000401565b5b8060405250919050565b600067ffffffffffffffff8211156200031d576200031c62000401565b5b601f19601f8301169050602081019050919050565b60006200033f8262000346565b9050919050565b600073ffffffffffffffffffffffffffffffffffffffff82169050919050565b60005b838110156200038657808201518184015260208101905062000369565b8381111562000396576000848401525b50505050565b60006002820490506001821680620003b557607f821691505b60208210811415620003cc57620003cb620003d2565b5b50919050565b7f4e487b7100000000000000000000000000000000000000000000000000000000600052602260045260246000fd5b7f4e487b7100000000000000000000000000000000000000000000000000000000600052604160045260246000fd5b6200043b8162000332565b81146200044757600080fd5b50565b610b09806200045a6000396000f3fe608060405234801561001057600080fd5b506004361061004c5760003560e01c80630ee2cb1014610051578063893d20e81461006f578063d590e7ef1461008d578063ff24b5d5146100a9575b600080fd5b6100596100c7565b604051610066919061089a565b60405180910390f35b6100776100f1565b604051610084919061089a565b60405180910390f35b6100a760048036038101906100a29190610628565b61011a565b005b6100b1610276565b6040516100be91906108b5565b60405180910390f35b6000600160009054906101000a900473ffffffffffffffffffffffffffffffffffffffff16905090565b60008060009054906101000a900473ffffffffffffffffffffffffffffffffffffffff16905090565b60008054906101000a900473ffffffffffffffffffffffffffffffffffffffff1673ffffffffffffffffffffffffffffffffffffffff163373ffffffffffffffffffffffffffffffffffffffff16146101a8576040517f08c379a000000000000000000000000000000000000000000000000000000000815260040161019f906108d7565b60405180910390fd5b600060405180608001604052808681526020018581526020018481526020018381525090506003819080600181540180825580915050600190039060005260206000209060040201600090919091909150600082015181600001908051906020019061021592919061051d565b50602082015181600101908051906020019061023292919061051d565b50604082015181600201908051906020019061024f92919061051d565b50606082015181600301908051906020019061026c92919061051d565b5050505050505050565b60606003805480602002602001604051908101604052809291908181526020016000905b8282101561051457838290600052602060002090600402016040518060800160405290816000820180546102cd90610a32565b80601f01602080910402602001604051908101604052809291908181526020018280546102f990610a32565b80156103465780601f1061031b57610100808354040283529160200191610346565b820191906000526020600020905b81548152906001019060200180831161032957829003601f168201915b5050505050815260200160018201805461035f90610a32565b80601f016020809104026020016040519081016040528092919081815260200182805461038b90610a32565b80156103d85780601f106103ad576101008083540402835291602001916103d8565b820191906000526020600020905b8154815290600101906020018083116103bb57829003601f168201915b505050505081526020016002820180546103f190610a32565b80601f016020809104026020016040519081016040528092919081815260200182805461041d90610a32565b801561046a5780601f1061043f5761010080835404028352916020019161046a565b820191906000526020600020905b81548152906001019060200180831161044d57829003601f168201915b5050505050815260200160038201805461048390610a32565b80601f01602080910402602001604051908101604052809291908181526020018280546104af90610a32565b80156104fc5780601f106104d1576101008083540402835291602001916104fc565b820191906000526020600020905b8154815290600101906020018083116104df57829003601f168201915b5050505050815250508152602001906001019061029a565b50505050905090565b82805461052990610a32565b90600052602060002090601f01602090048101928261054b5760008555610592565b82601f1061056457805160ff1916838001178555610592565b82800160010185558215610592579182015b82811115610591578251825591602001919060010190610576565b5b50905061059f91906105a3565b5090565b5b808211156105bc5760008160009055506001016105a4565b5090565b60006105d36105ce84610928565b6108f7565b9050828152602081018484840111156105eb57600080fd5b6105f68482856109f0565b509392505050565b600082601f83011261060f57600080fd5b813561061f8482602086016105c0565b91505092915050565b6000806000806080858703121561063e57600080fd5b600085013567ffffffffffffffff81111561065857600080fd5b610664878288016105fe565b945050602085013567ffffffffffffffff81111561068157600080fd5b61068d878288016105fe565b935050604085013567ffffffffffffffff8111156106aa57600080fd5b6106b6878288016105fe565b925050606085013567ffffffffffffffff8111156106d357600080fd5b6106df878288016105fe565b91505092959194509250565b60006106f78383610822565b905092915050565b610708816109be565b82525050565b600061071982610968565b610723818561098b565b93508360208202850161073585610958565b8060005b85811015610771578484038952815161075285826106eb565b945061075d8361097e565b925060208a01995050600181019050610739565b50829750879550505050505092915050565b600061078e82610973565b610798818561099c565b93506107a88185602086016109ff565b6107b181610ac2565b840191505092915050565b60006107c96026836109ad565b91507f4f776e61626c65236f6e6c794f776e65723a2053454e4445525f49535f4e4f5460008301527f5f4f574e455200000000000000000000000000000000000000000000000000006020830152604082019050919050565b6000608083016000830151848203600086015261083f8282610783565b915050602083015184820360208601526108598282610783565b915050604083015184820360408601526108738282610783565b9150506060830151848203606086015261088d8282610783565b9150508091505092915050565b60006020820190506108af60008301846106ff565b92915050565b600060208201905081810360008301526108cf818461070e565b905092915050565b600060208201905081810360008301526108f0816107bc565b9050919050565b6000604051905081810181811067ffffffffffffffff8211171561091e5761091d610a93565b5b8060405250919050565b600067ffffffffffffffff82111561094357610942610a93565b5b601f19601f8301169050602081019050919050565b6000819050602082019050919050565b600081519050919050565b600081519050919050565b6000602082019050919050565b600082825260208201905092915050565b600082825260208201905092915050565b600082825260208201905092915050565b60006109c9826109d0565b9050919050565b600073ffffffffffffffffffffffffffffffffffffffff82169050919050565b82818337600083830152505050565b60005b83811015610a1d578082015181840152602081019050610a02565b83811115610a2c576000848401525b50505050565b60006002820490506001821680610a4a57607f821691505b60208210811415610a5e57610a5d610a64565b5b50919050565b7f4e487b7100000000000000000000000000000000000000000000000000000000600052602260045260246000fd5b7f4e487b7100000000000000000000000000000000000000000000000000000000600052604160045260246000fd5b6000601f19601f830116905091905056fea26469706673582212208aa5b056a13cf18c4f50a15e30349795fecd4ec5f07a851a3c2bea82c5dd69ec64736f6c63430008000033",
  "immutableReferences": {},
  "source": "// SPDX-License-Identifier: MIT\npragma solidity ^0.8.0;\npragma experimental ABIEncoderV2;\n\nimport \"./utils/Ownable.sol\";\n\n\nstruct File {\n    string _name;\n    string _fileType;\n    string _ipfsHash;\n    string _key;\n}\n\ncontract Vault is Ownable {\n    string user;\n    File[] files;\n    constructor(address _owner, string memory _userName ) Ownable(msg.sender, _owner) {\n        user = _userName;\n    }\n\n    function getAllFiles() external view returns(File[] memory) {\n        return files;\n    }\n\n    function createFile(string memory name, string memory fileType, string memory ipfsHash, string memory key) external onlyOwner {\n        File memory f = File(\n           {\n            _name: name,\n            _fileType: fileType,\n            _ipfsHash: ipfsHash,\n            _key: key\n           }\n        );\n        files.push(f);\n    }\n}",
  "sourcePath": "/Users/shubhaankar/github.com/peer-safe/contracts/contracts/Vault.sol",
  "compiler": {
    "name": "solc",
    "version": "0.8.0+commit.c7dfd78e.Emscripten.clang"
  },
  "schemaVersion": "3.4.11",
  "updatedAt": "2023-01-21T21:17:21.260Z",
  "devdoc": {
    "kind": "dev",
    "methods": {},
    "version": 1
  },
  "userdoc": {
    "kind": "user",
    "methods": {},
    "version": 1
  }
}